:020000040800F2
:1000000000500020A9260008C1240008C9240008C7
:10001000D1240008D9240008E124000800000000D1
:10002000000000000000000000000000E9240008BB
:10003000F524000800000000012500080D25000837
:10004000F1260008F1260008F1260008F126000834
:10005000F1260008F1260008F1260008F126000824
:10006000F1260008F1260008F1260008F126000814
:10007000F1260008F1260008F1260008F126000804
:10008000F1260008F1260008F1260008F1260008F4
:10009000F1260008F1260008F1260008F1260008E4
:1000A000F1260008F1260008F1260008F1260008D4
:1000B000F1260008F1260008F1260008F1260008C4
:1000C000F1260008F1260008F1260008F1260008B4
:1000D000F1260008F1260008F1260008F1260008A4
:1000E000F1260008F1260008F126000800000000B3
:1000F0000000000000000000000000000000000000
:0C01000000000000000000005FF808F1A3
:1001100010B5054C237833B9044B13B10448AFF341
:1001200000800123237010BDD801002000000000D2
:10013000309E000808B5034B1BB103490348AFF3D9
:10014000008008BD00000000DC010020309E000897
:10015000034613F8012B002AFBD1181A0138704707
:1001600081F0004102E000BF83F0004330B54FEA68
:1001700041044FEA430594EA050F08BF90EA020FD5
:100180001FBF54EA000C55EA020C7FEA645C7FEA68
:10019000655C00F0E2804FEA5454D4EB5555B8BF8B
:1001A0006D420CDD2C4480EA020281EA030382EAFC
:1001B000000083EA010180EA020281EA0303362D8E
:1001C00088BF30BD11F0004F4FEA01314FF4801C61
:1001D0004CEA113102D0404261EB410113F0004F73
:1001E0004FEA03334CEA133302D0524263EB43032A
:1001F00094EA050F00F0A780A4F10104D5F1200EC8
:100200000DDB02FA0EFC22FA05F2801841F1000122
:1002100003FA0EF2801843FA05F359410EE0A5F1F6
:1002200020050EF1200E012A03FA0EFC28BF4CF027
:10023000020C43FA05F3C01851EBE37101F00045DD
:1002400007D54FF0000EDCF1000C7EEB00006EEBEA
:100250000101B1F5801F1BD3B1F5001F0CD3490874
:100260005FEA30004FEA3C0C04F101044FEA4452CB
:1002700012F5800F80F09A80BCF1004F08BF5FEA52
:10028000500C50F1000041EB045141EA050130BD32
:100290005FEA4C0C404141EB0101013C28BFB1F544
:1002A000801FE9D291F0000F04BF01460020B1FA8F
:1002B00081F308BF2033A3F10B03B3F120020CDA62
:1002C0000C3208DD02F1140CC2F10C0201FA0CF040
:1002D00021FA02F10CE002F11402D8BFC2F1200CA5
:1002E00001FA02F120FA0CFCDCBF41EA0C0190405B
:1002F000E41AA2BF01EB0451294330BD6FEA0404A4
:100300001F3C1CDA0C340EDC04F11404C4F120028E
:1003100020FA04F001FA02F340EA030021FA04F3A0
:1003200045EA030130BDC4F10C04C4F1200220FAF7
:1003300002F001FA04F340EA0300294630BD21FA35
:1003400004F0294630BD94F0000F83F4801306BFFB
:1003500081F480110134013D4EE77FEA645C18BFEF
:100360007FEA655C29D094EA050F08BF90EA020F86
:1003700005D054EA000C04BF1946104630BD91EA7E
:10038000030F1EBF0021002030BD5FEA545C05D181
:100390004000494128BF41F0004130BD14F58004C0
:1003A0003CBF01F5801130BD01F0004545F0FE4134
:1003B00041F470014FF0000030BD7FEA645C1ABF69
:1003C000194610467FEA655C1CBF0B46024650EAA0
:1003D000013406BF52EA033591EA030F41F40021CC
:1003E00030BD00BF90F0000F04BF0021704730B552
:1003F0004FF4806404F132044FF000054FF0000127
:1004000050E700BF90F0000F04BF0021704730B5E7
:100410004FF4806404F1320410F0004548BF4042BC
:100420004FF000013EE700BF42004FEAE2014FEA11
:1004300031014FEA02701FBF12F07F4393F07F4FEC
:1004400081F06051704732F07F4208BF704793F0EF
:100450007F4F04BF41F40021704730B54FF4607402
:1004600001F0004521F000411CE700BF50EA010205
:1004700008BF704730B54FF000050AE050EA0102AE
:1004800008BF704730B511F0004502D5404261EB1E
:1004900041014FF4806404F132045FEA915C3FF45F
:1004A000D8AE4FF003025FEADC0C18BF03325FEAFC
:1004B000DC0C18BF033202EBDC02C2F1200300FAAD
:1004C00003FC20FA02F001FA03FE40EA0E0021FAD2
:1004D00002F11444BDE600BF70B54FF0FF0C4CF4C0
:1004E000E06C1CEA11541DBF1CEA135594EA0C0F72
:1004F00095EA0C0F00F0DEF82C4481EA030621EAAD
:100500004C5123EA4C5350EA013518BF52EA0335E7
:1005100041F4801143F4801338D0A0FB02CE4FF099
:100520000005E1FB02E506F00042E0FB03E54FF0C9
:100530000006E1FB03569CF0000F18BF4EF0010EC1
:10054000A4F1FF04B6F5007F64F5407404D25FEABD
:100550004E0E6D4146EB060642EAC62141EA555170
:100560004FEAC52040EA5E504FEACE2EB4F1FD0CB2
:1005700088BFBCF5E06F1ED8BEF1004F08BF5FEA30
:10058000500E50F1000041EB045170BD06F00046E2
:1005900046EA010140EA020081EA0301B4EB5C048F
:1005A000C2BFD4EB0C0541EA045170BD41F4801187
:1005B0004FF0000E013C00F3AB8014F1360FDEBFAC
:1005C000002001F0004170BDC4F10004203C35DA88
:1005D0000C341BDC04F11404C4F1200500FA05F30B
:1005E00020FA04F001FA05F240EA020001F00042AC
:1005F00021F0004110EBD37021FA04F642EB060122
:100600005EEA430E08BF20EAD37070BDC4F10C044B
:10061000C4F1200500FA04F320FA05F001FA04F20F
:1006200040EA020001F0004110EBD37041F10001FB
:100630005EEA430E08BF20EAD37070BDC4F1200506
:1006400000FA05F24EEA020E20FA04F301FA05F26E
:1006500043EA020321FA04F001F0004121FA04F216
:1006600020EA020000EBD3705EEA430E08BF20EAE6
:10067000D37070BD94F0000F0FD101F00046400020
:1006800041EB010111F4801F08BF013CF7D041EAA2
:10069000060195F0000F18BF704703F000465200A6
:1006A00043EB030313F4801F08BF013DF7D043EA77
:1006B0000603704794EA0C0F0CEA135518BF95EA2D
:1006C0000C0F0CD050EA410618BF52EA4306D1D1B4
:1006D00081EA030101F000414FF0000070BD50EAD3
:1006E000410606BF1046194652EA430619D094EA5D
:1006F0000C0F02D150EA013613D195EA0C0F05D147
:1007000052EA03361CBF104619460AD181EA03019A
:1007100001F0004141F0FE4141F470014FF0000052
:1007200070BD41F0FE4141F4780170BD70B54FF0ED
:10073000FF0C4CF4E06C1CEA11541DBF1CEA13556D
:1007400094EA0C0F95EA0C0F00F0A7F8A4EB05044F
:1007500081EA030E52EA03354FEA013100F0888046
:100760004FEA03334FF0805545EA131343EA12630F
:100770004FEA022245EA111545EA10654FEA0026C4
:100780000EF000419D4208BF964244F1FD0404F57D
:10079000407402D25B084FEA3202B61A65EB0305D9
:1007A0005B084FEA32024FF480104FF4002CB6EB96
:1007B000020E75EB030E22BFB61A754640EA0C0016
:1007C0005B084FEA3202B6EB020E75EB030E22BF56
:1007D000B61A754640EA5C005B084FEA3202B6EB97
:1007E000020E75EB030E22BFB61A754640EA9C0056
:1007F0005B084FEA3202B6EB020E75EB030E22BF26
:10080000B61A754640EADC0055EA060E18D04FEAE3
:10081000051545EA16754FEA06164FEAC30343EA83
:1008200052734FEAC2025FEA1C1CC0D111F4801F50
:100830000BD141EA00014FF000004FF0004CB6E749
:1008400011F4801F04BF01430020B4F1FD0C88BFE8
:10085000BCF5E06F3FF6AFAEB5EB030C04BFB6EBF3
:10086000020C5FEA500C50F1000041EB045170BDE6
:100870000EF0004E4EEA113114EB5C04C2BFD4EB13
:100880000C0541EA045170BD41F480114FF0000E97
:10089000013C90E645EA060E8DE60CEA135594EA13
:1008A0000C0F08BF95EA0C0F3FF43BAF94EA0C0F16
:1008B0000AD150EA01347FF434AF95EA0C0F7FF48B
:1008C00025AF104619462CE795EA0C0F06D152EADF
:1008D00003353FF4FDAE1046194622E750EA4106C3
:1008E00018BF52EA43067FF4C5AE50EA41047FF4D4
:1008F0000DAF52EA43057FF4EBAE12E74FF0FF3C39
:1009000006E000BF4FF0010C02E000BF4FF0010C09
:100910004DF804CD4FEA410C7FEA6C5C4FEA430C82
:1009200018BF7FEA6C5C1BD001B050EA410C0CBFD1
:1009300052EA430C91EA030F02BF90EA020F002033
:10094000704710F1000F91EA030F58BF994208BF9A
:1009500090422CBFD8176FEAE37040F00100704757
:100960004FEA410C7FEA6C5C02D150EA013C07D1AE
:100970004FEA430C7FEA6C5CD6D152EA033CD3D0F9
:100980005DF8040B704700BF8446104662468C46F3
:100990001946634600E000BF01B5FFF7B7FF002826
:1009A00048BF10F1000F01BD4DF808EDFFF7F4FF4F
:1009B0000CBF012000205DF808FB00BF4DF808EDDA
:1009C000FFF7EAFF34BF012000205DF808FB00BFFD
:1009D0004DF808EDFFF7E0FF94BF012000205DF81F
:1009E00008FB00BF4DF808EDFFF7CEFF94BF0120D4
:1009F00000205DF808FB00BF4DF808EDFFF7C4FFCD
:100A000034BF012000205DF808FB00BF4FEA410C15
:100A10007FEA6C5C02D150EA013C0AD14FEA430CF8
:100A20007FEA6C5C02D152EA033C02D14FF0000035
:100A300070474FF0010070474FEA410212F5001273
:100A400015D211D56FF47873B3EB625212D94FEA15
:100A5000C12343F0004343EA505311F0004F23FAFF
:100A600002F018BF404270474FF00000704750EA54
:100A7000013005D111F0004008BF6FF00040704711
:100A80004FF00000704700BF4A0011D212F500126B
:100A900011D20DD56FF47873B3EB62520ED44FEAD6
:100AA000C12343F0004343EA505323FA02F0704756
:100AB0004FF00000704750EA013002D14FF0FF3094
:100AC00070474FF0000070474FEA4102B2F1E04337
:100AD00024BFB3F5001CDCF1FE5C0DD901F0004C25
:100AE0004FEAC0024CEA5070B2F1004F40EB830075
:100AF00008BF20F00100704711F0804F21D113F1A1
:100B00003872BCBF01F00040704741F480114FEAD9
:100B10005252C2F11802C2F1200C10FA0CF320FA62
:100B200002F018BF40F001004FEAC1234FEAD3237F
:100B300003FA0CFC40EA0C0023FA02F34FEA4303E9
:100B4000CCE77FEA625307D150EA01331EBF4FF072
:100B5000FE4040F44000704701F0004040F0FE408D
:100B600040F40000704700BF80F0004002E000BF8A
:100B700081F0004142001FBF5FEA410392EA030F88
:100B80007FEA226C7FEA236C6AD04FEA1262D2EBD2
:100B90001363C1BFD218414048404140B8BF5B42D7
:100BA000192B88BF704710F0004F40F4000020F070
:100BB0007F4018BF404211F0004F41F4000121F086
:100BC0007F4118BF494292EA030F3FD0A2F10102D0
:100BD00041FA03FC10EB0C00C3F1200301FA03F10E
:100BE00000F0004302D5494260EB4000B0F5000F31
:100BF00013D3B0F1807F06D340084FEA310102F1F0
:100C00000102FE2A51D2B1F1004F40EBC25008BFA1
:100C100020F0010040EA03007047490040EB00006B
:100C2000013A28BFB0F5000FEDD2B0FA80FCACF16C
:100C3000080CB2EB0C0200FA0CF0AABF00EBC25099
:100C400052421843BCBFD0401843704792F0000F87
:100C500081F4000106BF80F400000132013BB5E7DA
:100C60004FEA41037FEA226C18BF7FEA236C21D050
:100C700092EA030F04D092F0000F08BF08467047B5
:100C800090EA010F1CBF0020704712F07F4F04D183
:100C9000400028BF40F00040704712F100723CBF96
:100CA00000F50000704700F0004343F0FE4040F4C0
:100CB000000070477FEA226216BF08467FEA23637E
:100CC0000146420206BF5FEA412390EA010F40F469
:100CD000800070474FF0000304E000BF10F00043B5
:100CE00048BF40425FEA000C08BF704743F096439C
:100CF00001464FF000001CE050EA010208BF7047B7
:100D00004FF000030AE000BF50EA010208BF70473D
:100D100011F0004302D5404261EB41015FEA010C52
:100D200002BF84460146002043F0B64308BFA3F14A
:100D30008053A3F50003BCFA8CF2083AA3EBC2532C
:100D400010DB01FA02FC634400FA02FCC2F120024B
:100D5000BCF1004F20FA02F243EB020008BF20F082
:100D60000100704702F1200201FA02FCC2F12002E8
:100D700050EA4C0021FA02F243EB020008BF20EADD
:100D8000DC7070474FEA4002B2F1FE4F0FD34FF0D4
:100D90009E03B3EB12620DD94FEA002343F00043E8
:100DA00010F0004F23FA02F018BF404270474FF096
:100DB0000000704712F1610F01D1420205D110F01D
:100DC000004008BF6FF0004070474FF000007047D0
:100DD00053B94AB9002908BF00281CBF4FF0FF31A2
:100DE0004FF0FF3000F0C2B9ADF1080C6DE904CE50
:100DF00000F03CF8DDF804E0DDE9022304B07047C0
:100E000038B50022002304460D46FFF7D7FD28B968
:100E100020462946BDE8384000F00AB8204605F1D2
:100E2000004100F005F8404261EB410138BD00BFD0
:100E3000D0B500220B4B06460F46FFF74DFBFFF7E0
:100E400023FE0446FFF7CEFA0022074BFFF744FBD0
:100E500002460B4630463946FFF786F9FFF714FE87
:100E60002146D0BD0000F03D0000F0412DE9F047E3
:100E7000089D8E4604468846002B4AD18A42174672
:100E800062D9B2FA82F64EB1C6F1200301FA06F831
:100E900020FA03F3B74043EA0808B4404FEA174E7C
:100EA000B8FBFEF11FFA87FC0EFB118801FB0CF268
:100EB000230C43EA08439A4209D9FB1801F1FF3099
:100EC00080F0EB809A4240F2E88002393B449A1A63
:100ED000B2FBFEF00EFB102200FB0CFCA3B243EAB7
:100EE00002439C4509D9FB1800F1FF3280F0D780FE
:100EF0009C4540F2D4803B44023840EA0140002146
:100F0000A3EB0C031DB10022F340C5E90032BDE89C
:100F1000F0878B4205D90DB1C5E9000100210846D3
:100F2000F5E7B3FA83F1002946D1734502D3824233
:100F300000F20881841A6EEB030201209046002D16
:100F4000E5D0C5E90048E2E7002A00F09180B2FA56
:100F500082F6002E40F0A5808A1A0121030C4FEA88
:100F6000174E80B2BCB2B2FBFEFC0EFB1C2243EA61
:100F7000024304FB0CF29A4207D9FB180CF1FF382C
:100F800002D29A4200F2E380C4469B1AB3FBFEF2FF
:100F90000EFB123302FB04F440EA03439C4207D9E0
:100FA000FB1802F1FF3002D29C4200F2CD800246D3
:100FB0001B1B42EA0C40A5E7C1F120068B4022FA38
:100FC00006F71F432EFA06FA4FEA1749BAFBF9F85B
:100FD0000EFA01FE20FA06F309FB18AA1FFA87FC95
:100FE00043EA0E0300FA01FE08FB0CF01C0C44EA75
:100FF0000A44A04202FA01F20AD93C1908F1FF3A68
:1010000080F09E80A04240F29B80A8F102083C4400
:10101000241A98B2B4FBF9F309FB134403FB0CFC4C
:1010200040EA0444A44509D93C1903F1FF3080F09B
:101030008580A44540F28280023B3C4443EA08405C
:10104000A4EB0C04A0FB028C64454346E14664D348
:1010500061D05DB1BEEB030264EB090404FA06F64D
:1010600022FA01F31E43CC40C5E9006400214EE79B
:10107000B1FBF2FC010C41EA0E4180B240EA0142B0
:101080003B46B1FBF7F138463C46B846BE46202603
:10109000A2EB080241EA0C4165E7014617E710465A
:1010A0002BE7C6F120012EFA01FCB7400EFA06FE2E
:1010B00020FA01F141EA0E014FEA174EBCFBFEF89F
:1010C000BCB20EFB18CC08FB04F90A0C42EA0C4235
:1010D000B04091454FEA104380B23ED9BA1808F1AA
:1010E000FF3C01D291451FD8A2EB0902B2FBFEF9E9
:1010F00009FB04F80EFB192A8AB242EA0A42424569
:1011000029D2BA1809F1FF31C2D24245C0D2A9F1A1
:1011100002013A44BCE7C6459BD2B8EB02036CEB34
:10112000070C0138E14694E7A7EB09094A44B2FBF2
:10113000FEF9A8F1020C09FB04F8DBE703467DE7A2
:10114000D04665E70846FAE63B44023A30E7ACF1A0
:10115000020C3B4419E749469AE7A2EB0902B2FBAD
:10116000FEF9C44609FB04F8C4E700BF704700BF9E
:1011700080B584B000AF78600B46FB707B681B685D
:10118000FA781146184600F0AAFB7B681B681846DF
:1011900000F0C5FB0346FB737B681B680121184602
:1011A00000F062FBFB7B18461037BD4680BD80B562
:1011B00082B000AF78600B46FB701346BB707B6853
:1011C0001B680021184600F04FFB7B681A68FB780B
:1011D00063F07F03DBB21946104600F080FB7B68AA
:1011E0001B68BA781146184600F079FB7B681B68CB
:1011F0000121184600F038FB00BF0837BD4680BD0E
:1012000090B587B000AFF8607A601A460B46FB7263
:101210001346BB72BB7A012B27D9FB681B680021E0
:10122000184600F021FBFB681B68FA7A1146184645
:1012300000F055FB0023FB750CE0FB681968FB7D93
:101240007A68D418084600F06AFB03462370FB7DD9
:101250000133FB75FA7DBB7A9A42EED3FB681B68BB
:101260000121184600F000FB00E000BF1C37BD461E
:1012700090BD80B586B000AFF8607A601A460B4624
:10128000FB721346BB72BB7A012B29D9FB681B6822
:101290000021184600F0E8FAFB681A68FB7A63F050
:1012A0007F03DBB21946104600F019FB0023FB75E3
:1012B0000BE0FB681868FB7D7A6813441B781946BD
:1012C00000F00DFBFB7D0133FB75FA7DBB7A9A4282
:1012D000EFD3FB681B680121184600F0C5FA00E057
:1012E00000BF1837BD4680BD80B586B000AF7860BE
:1012F000786800F00DF90F2000F037FB786800F0F7
:1013000017F97B68D3E902234FF000004FF000018A
:10131000D90441EA5231D0046F4A4FF00003FFF77D
:1013200057FD02460B46C7E90423D7E904014FF0F5
:1013300000024FF00003020C42EA01420B0CD3B250
:101340003B73D7E904014FF000024FF00003020A9B
:1013500042EA01620B0AD3B27B733B7CBB7307F199
:101360000C02032306217868FFF783FF342239211A
:101370007868FFF71CFF7B681B7C1A46574B9B5C09
:101380001A4609217868FFF712FF0B220B217868B3
:10139000FFF70DFF23220C217868FFF708FF7B6819
:1013A0005B7C1A464E4B9B5C062B47D17B689B7C33
:1013B0001A464C4B9B5C1B01DAB27B68DB7C1946FE
:1013C000494B5B5C5B00DBB21344DBB20133DBB245
:1013D0001A461D217868FFF7EAFE7B685B7C1A4697
:1013E0003F4B9B5C1B01DAB27B681B7D19463F4B70
:1013F0005B5C9B00DBB21344DBB20333DBB21A4607
:101400001E217868FFF7D3FE31217868FFF7B0FE20
:101410000346FB73FB7B23F00703FB73FB7B43F06B
:101420000503FB73FB7B1A4631217868FFF7BFFE8B
:101430000C2237217868FFF7BAFE29E07B689B7C95
:101440001A46284B9B5C1B01DAB27B68DB7C194691
:10145000254B5B5C5B00DBB21344DBB21A461D21FB
:101460007868FFF7A4FE7B685B7C1A461C4B9B5C8C
:101470001B01DAB27B681B7D19461C4B5B5C9B0031
:10148000DBB21344DBB21A461E217868FFF78FFEE9
:10149000042226217868FFF78AFE08221F21786837
:1014A000FFF785FE002220217868FFF780FE0822E2
:1014B00021217868FFF77BFE012241217868FFF740
:1014C00076FE7B68002283F81721786800F010F818
:1014D00000BF1837BD4680BD0048E801B49E000833
:1014E000B89E0008C09E0008CC9E0008D09E000850
:1014F00080B582B000AF7860092201217868FFF7DB
:1015000056FE7B6801229A7500BF0837BD4680BD34
:1015100080B582B000AF7860082201217868FFF7BB
:1015200046FE7B6800229A7500BF0837BD4680BD25
:1015300080B582B000AF7860882201217868FFF71B
:1015400036FE00BF0837BD4680BD80B582B000AF13
:101550007860FF2212217868FFF729FE00BF083764
:10156000BD4680BD80B586B000AFF8600B467A609E
:10157000FB72FB68FA7A5A75F868FFF7B5FE8422A9
:101580004D21F868FFF713FEFF222421F868FFF7CA
:101590000EFE01224021F868FFF709FE3F221121CB
:1015A000F868FFF704FEF868FFF7CFFFFB7A1A46EA
:1015B0002221F868FFF7FBFD0F21F868FFF7D8FD3F
:1015C0000346FB75FB7D1A460D21F868FFF7EFFD1A
:1015D0008D220121F868FFF7EAFDFB68002283F8FD
:1015E00017211821F868FFF7C3FD034603F0040331
:1015F000042B04D1FB6803229A75012313E07B6856
:10160000013B7B607B68002B09D1FB681B68184697
:1016100000F041F9F868FFF767FE002303E00120BE
:1016200000F0A3F9DDE718461837BD4680BD80B548
:1016300084B000AF78607B681B68184600F0A0F9A2
:101640000346002B30D07B6817334FF480720021A3
:10165000184604F02AFB10217868FFF789FD03463D
:10166000BB73BB7B1A460D217868FFF7A0FD7B6832
:101670005B7C002B03D17B685B7DFB7305E0132152
:101680007868FFF775FD0346FB737B6803F117026B
:10169000FB7B00217868FFF7B3FD7B68FA7B83F85A
:1016A00017217868FFF751FF7B6893F817311846C8
:1016B0001037BD4680BD80B586B000AFF8600B46E0
:1016C0007A60FB72FB68FA7A5A75F868FFF70CFECD
:1016D00087224D21F868FFF76AFD00222421F8686F
:1016E000FFF765FD41224021F868FFF760FDF868CB
:1016F000FFF72BFFF7221121F868FFF758FDFB7A5F
:101700001A462221F868FFF752FD0E21F868FFF70C
:101710002FFD0346FB75FB7D1A460D21F868FFF788
:1017200046FD2221F868FFF723FD0346BB75BA7D0D
:10173000FB7A9A4204D1FB6802229A7501230EE0DB
:101740007B68013B7B607B68002BEAD1FB681B68F0
:10175000184600F0A0F8F868FFF7C6FD0023184609
:101760001837BD4680BD80B584B000AFF860B96061
:101770003B601346FB71FB79BA680021F868FFF7FC
:1017800078FD8B220121F868FFF711FDFB681B68CB
:10179000184600F0F5F80346002B0BD01221F8682C
:1017A000FFF7E6FCF868FFF7D0FEF868FFF7A0FE49
:1017B000012313E03B68013B3B603B68002B09D1F0
:1017C000FB681B68184600F066F8F868FFF78CFDA8
:1017D000002303E0012000F0C8F8D7E718461037CF
:1017E000BD4680BD80B584B000AFF860C7E9002376
:1017F000FB681B68184600F022F8F968D7E9002357
:10180000C1E90223FB683A7E1A74FB683A7F5A7476
:10181000FB6897F820209A74FB6897F82420DA7404
:10182000FB6897F828201A75FB6897F82C205A75E2
:10183000F868FFF759FD00BF1037BD4680BD80B581
:1018400082B000AF78600121786800F00DF87B6805
:1018500058687B681B689BB20122194601F07BFE29
:1018600000BF0837BD4680BD80B582B000AF78604C
:1018700039607B6858697B681B6999B23B68012BAA
:101880000CBF01230023DBB21A4601F064FE00BF47
:101890000837BD4680BD80B582B000AF78600121B9
:1018A0007868FFF7E1FF7B6858687B681B689BB22C
:1018B0000022194601F04FFE012000F056F87B6827
:1018C00058687B681B689BB20122194601F043FEF1
:1018D000642000F04AF800BF0837BD4680BD80B5DF
:1018E00082B000AF78600B46FB7000217868FFF78C
:1018F000BBFF7B689869F91C4FF47A73012202F0F0
:1019000043FC00BF7B689B69184602F02AFF034630
:10191000012BF7D100BF00BF0837BD4680BD80B5A1
:1019200086B002AF78600023FB730023BB730021F5
:101930007868FFF799FF7B68986907F10E0207F155
:101940000F014FF47A730093012302F061FD00BF91
:101950007B689B69184602F004FF0346012BF7D110
:10196000BB7B18461037BD4680BD80B582B000AF46
:101970007860786800F020FF00BF0837BD4680BD62
:1019800080B582B000AF78607B68DA687B689B685E
:101990009BB21946104601F0C7FD0346012B0CBF50
:1019A00001230023DBB218460837BD4680BD000086
:1019B00080B400AF164B00221A60154B154A5A60CE
:1019C000134B4FF480521A81114B01229A62104B33
:1019D000104ADA620E4B4FF400521A860C4B022268
:1019E0001A650B4B0B4A5A65094B4FF48042A3F81A
:1019F0005820074B03229A67054B064ADA67044BC7
:101A00004FF40042A3F8802000BFBD4680BC704761
:101A1000C8020020000C014080B586B000AF78609D
:101A200007F10C0300221A605A609A607B68FB6021
:101A300001233B6100237B6107F10C031946034836
:101A400001F076F900BF1837BD4680BDF4010020D3
:101A5000B0B590B000AF786039607868FFF7DCFF10
:101A60000023FB630023BB632CE0474800F0A0FF8A
:101A70000A21454801F04AF8434801F04DF9034670
:101A8000FB604FF40062FB689B1A7B637B6B13F176
:101A9000040F04DB7B6B042B01DC00237B637B6B7B
:101AA00003FB03F3FA6B1344FB6300233B6303E084
:101AB00000BF3B6B01333B633B6B312BF8DDBB6BF2
:101AC0000133BB63BA6B3B689A42CEDBF86BFEF71F
:101AD00099FC04460D463868FEF794FC02460B4616
:101AE00020462946FEF722FE02460B46C7E90A2396
:101AF000D7E90A0108F0A6F8C7E908014FF48053B6
:101B00001846FFF7EBF803461846FEF78DFC024631
:101B10000B4619A1D1E90001FEF708FE02460B466B
:101B2000D7E90801FEF7D8FC02460B46C7E90623B1
:101B3000164B1846FEF778FC02460B46D7E906011D
:101B4000FEF7CAFC02460B46C7E904230CA3D3E9FF
:101B50000023D7E90401FEF731FF0346002B04D030
:101B60004FF000024FF0000301E0D7E904231046D4
:101B700019464037BD46B0BD6666666666660A4071
:101B8000333333333333C33FF4010020666672428C
:101B9000B0B5EEB006AF00F0ADFD00F021FA00F0F8
:101BA00019FB00F079FA00F0B5FA00F0E9FAFFF756
:101BB000FFFE00F0F7FD0346C54A136000F0F2FD9A
:101BC0000346C44A1360C44BC44ADA60C24B0122C4
:101BD0009A60C14BC24A5A61BF4B10221A61BE4B78
:101BE000BE4A5A60BC4B02221A60BB4BBD4A9A6186
:101BF000BD4BB94A1A600A230593002304930023BE
:101C00000393072302930123019301230093AAA3C3
:101C1000D3E90023B448FFF7E5FD4FF4FA62102141
:101C2000B148FFF79FFC64231022B049B04802F08E
:101C3000AEFE00F0B7FD0246A64B1B68D31AF92B87
:101C400040F2278100F0AEFD0346A24A1360A94B83
:101C50001A6813469B001344DB00A74A1344C7F8D5
:101C60009C31D7F89C311B6832211846FFF7F0FEF3
:101C700002460B46D7F89C11C1E90423D7F89C31E2
:101C8000D3E904459D4B1846FEF7CEFB02460B46B2
:101C900020462946FEF720FC02460B46D7F89C1149
:101CA000C1E90623D7F89C31D3E90845D7F89C3120
:101CB000D3E906014FF00002914BFEF70DFC0246FE
:101CC0000B4620462946FEF751FA02460B46D7F846
:101CD0009C11C1E90823D7F89C31D3E9080178A306
:101CE000D3E90023FEF722FD02460B46C7E9642331
:101CF000D7F89C31D3E9042310461946FEF79CFE21
:101D00000346C7F88C31D7F89C31D3E90445D7F89E
:101D10008C01FEF777FB02460B4620462946FEF76C
:101D200023FA02460B46104619464FF00002754B47
:101D3000FEF7D2FB02460B4610461946FEF77CFE24
:101D40000346C7F88831D7F89C31D3E906231046FB
:101D50001946FEF771FE0346C7F88431D7F89C3167
:101D6000D3E90645D7F88401FEF74CFB02460B4643
:101D700020462946FEF7F8F902460B46104619465A
:101D80004FF00002604BFEF7A7FB02460B461046E1
:101D90001946FEF751FE0346C7F88031D7E96401C2
:101DA000FEF74AFE0346C7F87C31D7F87C01FEF700
:101DB00029FB02460B46D7E96401FEF7D5F9024636
:101DC0000B461046194640A3D3E90023FEF784FBD7
:101DD00002460B4610461946FEF72EFE0346C7F88C
:101DE0007831444B1B685C1C444B1846FEF7CAFF15
:101DF0000246381DD7F878310593D7F87C31049323
:101E0000D7F880310393D7F884310293D7F888311B
:101E10000193D7F88C310093134622463B4903F0D7
:101E2000B1FE4FF4FA6210212F48FFF744FC3B1D2E
:101E30001846FEF78DF90346DAB2391D4FF4FA63FE
:101E40002948FFF790FC3A1D07F144033049184632
:101E500003F098FE07F144031846FEF779F90346AC
:101E60009AB207F144016423214802F090FD4FF437
:101E7000FA6210211C48FFF775FB1E4B1B680133EB
:101E80001C4A13601B4B1B68032B02DD194B0022FD
:101E90001A600121114801F047FB0346012B7FF432
:101EA000C8AE1148FFF7C3FB0346C7F87431D7F833
:101EB0007431002B2EE000BF400ECF19000000004F
:101EC0000000000040774B41000000000088C34044
:101ED000700300206C03002074030020000C0140FC
:101EE000000801402402002090030020489E0008C2
:101EF0007C02002068030020C80200200000664326
:101F00000000D03F00005940000024405C9E0008C3
:101F1000849E00087FF78DAE114BC7F87031D7F85B
:101F20007431D7F87021134400221A7007F144036A
:101F3000D7F870210B49184603F024FE07F144033B
:101F40001846FEF705F903469AB207F144016423E7
:101F5000054802F01CFDD7F8700100F007F868E6AC
:101F6000A7030020909E00087C02002080B586B068
:101F700000AF786007F10C0307F11002164978688A
:101F800003F022FE0346022B22D13B69002B1FDD0A
:101F90003B69042B1CDC3B695A1E13469B0013440F
:101FA000DB000E4A13447B61FB68012B08D17B697F
:101FB00058687B691B890022194601F0CCFA07E0BA
:101FC0007B6958687B691B890122194601F0C3FAB5
:101FD00000BF1837BD4680BDA09E0008C802002083
:101FE00080B594B000AF07F12803282200211846DD
:101FF00003F05BFE07F1140300221A605A609A6036
:10200000DA601A613B1D00221A605A609A60DA6039
:102010000123BB624FF48033FB6200233B63012347
:10202000BB6302237B644FF48033BB644FF4E01343
:10203000FB6407F12803184601F0A6FA0346002BBB
:1020400001D000F033F90F237B610223BB61002331
:10205000FB614FF480633B6200237B6207F1140352
:102060000221184601F012FD0346002B01D000F0BA
:102070001DF902237B604FF40043FB603B1D1846B3
:1020800001F092FE0346002B01D000F00FF900BFD3
:102090005037BD4680BD000080B584B000AF3B1D09
:1020A00000221A605A609A60184B194A1A60174B3E
:1020B00000229A60154B00221A73144B00221A75E5
:1020C000124B4FF46022DA61104B00225A600F4B22
:1020D00001221A610D4800F093FB0346002B01D04A
:1020E00000F0E4F800237B600123BB600023FB6069
:1020F0003B1D1946054800F01BFE0346002B01D08E
:1021000000F0D4F800BF1037BD4680BDF4010020B8
:102110000024014080B500AF174B184A1A60164BD7
:102120004FF482725A60144B00229A60124B0022C4
:10213000DA60114B00221A610F4B00225A610E4BDC
:102140004FF400729A610C4B2822DA610A4B00228C
:102150001A62094B00225A62074B00229A62064B10
:102160000A22DA62044801F08BFF0346002B01D0FB
:1021700000F09CF800BF80BD240200200030014028
:1021800080B500AF114B124A1A60104B4FF4165233
:102190005A600E4B00229A600C4B0022DA600B4B07
:1021A00000221A61094B0C225A61084B00229A61E5
:1021B000064B0022DA61054802F099FB0346002B2A
:1021C00001D000F073F800BF80BD00BF7C0200208A
:1021D0000038014080B588B000AF07F1100300223D
:1021E0001A605A609A60DA602D4B9B692C4A43F062
:1021F000200393612A4B9B6903F02003FB60FB687B
:10220000274B9B69264A43F004039361244B9B6947
:1022100003F00403BB60BB68214B9B69204A43F079
:10222000080393611E4B9B6903F008037B607B6886
:10223000012210211B4801F08EF900224FF2020109
:10224000194801F088F910233B6101237B610023C9
:10225000BB610223FB6107F110031946114800F02E
:10226000DFFF01233B6100237B610023BB6107F19A
:10227000100319460C4800F0D3FF4FF202033B61F4
:1022800001237B610023BB610223FB6107F1100383
:102290001946054800F0C4FF00BF2037BD4680BD89
:1022A0000010024000080140000C014080B400AF63
:1022B00072B600BF00BFFDE780B485B000AF154B1C
:1022C0009B69144A43F001039361124B9B6903F02D
:1022D0000103BB60BB680F4BDB690E4A43F08053C0
:1022E000D3610C4BDB6903F080537B607B680A4B46
:1022F0005B68FB60FB6823F0E063FB60FB6843F016
:102300000073FB60044AFB68536000BF1437BD468E
:1023100080BC7047001002400000014080B588B0CA
:1023200000AF786007F1100300221A605A609A60CB
:10233000DA607B681B68144A934221D1134B9B6976
:10234000124A43F400739361104B9B6903F40073CA
:10235000FB60FB680D4B9B690C4A43F004039361DF
:102360000A4B9B6903F00403BB60BB680F233B610E
:1023700003237B6107F110031946054800F050FF65
:1023800000BF2037BD4680BD002401400010024040
:102390000008014080B588B000AF786007F11003F5
:1023A00000221A605A609A60DA607B681B681B4AD8
:1023B00093422FD11A4B9B69194A43F4805393617E
:1023C000174B9B6903F48053FB60FB68144B9B69BC
:1023D000134A43F004039361114B9B6903F0040318
:1023E000BB60BB68A0233B6102237B610323FB61CD
:1023F00007F1100319460B4800F012FF40233B6120
:1024000000237B610023BB6107F1100319460548D7
:1024100000F006FF00BF2037BD4680BD0030014000
:10242000001002400008014080B588B000AF78601D
:1024300007F1100300221A605A609A60DA607B6824
:102440001B681C4A934231D11B4B9B691A4A43F4C7
:1024500080439361184B9B6903F48043FB60FB68E6
:10246000154B9B69144A43F004039361124B9B691B
:1024700003F00403BB60BB684FF400733B610223AD
:102480007B610323FB6107F1100319460B4800F041
:10249000C7FE4FF480633B6100237B610023BB6177
:1024A00007F110031946054800F0BAFE00BF2037B7
:1024B000BD4680BD003801400010024000080140C8
:1024C00080B400AF00BFFDE780B400AF00BFFDE700
:1024D00080B400AF00BFFDE780B400AF00BFFDE7F0
:1024E00080B400AF00BFFDE780B400AF00BFBD46C1
:1024F00080BC704780B400AF00BFBD4680BC704751
:1025000080B400AF00BFBD4680BC704780B500AF4F
:1025100000F036F900BF80BD80B400AF012318463B
:10252000BD4680BC704780B582B000AF786039602E
:1025300003F00EFC034616221A604FF0FF331846D4
:102540000837BD4680BD80B582B000AF78604FF0DF
:10255000FF317868FFF7E7FF00BFFDE780B586B081
:1025600000AFF860B9607A6000237B610AE0AFF3E6
:1025700000800146BB685A1CBA60CAB21A707B69F7
:1025800001337B617A697B689A42F0DB7B6818468D
:102590001837BD4680BD80B586B000AFF860B96021
:1025A0007A6000237B6109E0BB685A1CBA601B7823
:1025B0001846AFF300807B6901337B617A697B68E1
:1025C0009A42F1DB7B6818461837BD4680BD80B45F
:1025D00083B000AF78604FF0FF3318460C37BD462C
:1025E00080BC704780B483B000AF786039603B68CE
:1025F0004FF400525A60002318460C37BD4680BC89
:10260000704780B483B000AF7860012318460C3760
:10261000BD4680BC704780B485B000AFF860B9603B
:102620007A60002318461437BD4680BC704700000E
:1026300080B586B000AF7860144A154BD31A7B6121
:102640007B693B61134B1B68002B02D1114B124A73
:102650001A60104B1A687B6813443A699A4207D291
:1026600003F076FB03460C221A604FF0FF3309E0BB
:10267000084B1B68FB60074B1A687B681344054ACC
:102680001360FB6818461837BD4680BD0050002017
:1026900000040000A80400200006002080B400AF61
:1026A00000BFBD4680BC7047FFF7F8FF0B480C49E0
:1026B0000C4A002302E0D458C4500433C4188C429E
:1026C000F9D3094A094C002301E013600432A24205
:1026D000FBD303F043FBFFF75BFA704700000020D9
:1026E000D401002078A30008D8010020FC050020B8
:1026F000FEE7000080B500AF084B1B68074A43F0B7
:1027000010031360032000F057FD0F2000F008F8BD
:10271000FFF7D2FD0023184680BD00BF0020024015
:1027200080B582B000AF7860124B1A68124B1B78EC
:1027300019464FF47A73B3FBF1F3B2FBF3F3184687
:1027400000F061FD0346002B01D001230EE07B6801
:102750000F2B0AD8002279684FF0FF3000F037FDC8
:10276000064A7B681360002300E0012318460837FF
:10277000BD4680BD000000200800002004000020AD
:1027800080B400AF054B1B781A46054B1B681344F9
:10279000034A136000BFBD4680BC7047080000209C
:1027A000AC04002080B400AF024B1B681846BD4645
:1027B00080BC7047AC04002080B584B000AF786066
:1027C000FFF7F0FFB8607B68FB60FB68B3F1FF3F89
:1027D00005D00A4B1B781A46FB681344FB6000BF08
:1027E000FFF7E0FF0246BB68D31AFA689A42F7D8AF
:1027F00000BF00BF1037BD4680BD00BF08000020ED
:1028000080B586B000AF78600023FB7500233B6184
:102810000023BB600023FB607B68002B01D10123F8
:10282000BEE07B689B68002B7B689B6A002B09D10C
:102830007B680022DA627B68002283F824207868B3
:10284000FFF76CFD786800F0C5FB0346FB757B68FD
:102850009B6A03F01003002B40F09980FB7D002B56
:1028600040F095807B689B6A23F4885323F0020331
:1028700043F002027B689A627B685A687B68DB6976
:102880001A437B681B7B5B001343BA681343BB602E
:102890007B689B68B3F5807F03D07B689B68012BC6
:1028A00002D14FF4807300E000233A6913433B6187
:1028B0007B681B7D012B19D17B681B7B002B09D109
:1028C0007B689B69013B5A033B69134343F40063F4
:1028D0003B610BE07B689B6A43F020027B689A6255
:1028E0007B68DB6A43F001027B68DA627B681B6805
:1028F0005B6823F469417B681B683A690A435A6044
:102900007B681B689A68284B13407A681268B9681C
:102910000B4393607B689B68B3F5807F03D07B6833
:102920009B68012B04D17B681B69013B1B05FB6085
:102930007B681B68DB6A23F470017B681B68FA689C
:102940000A43DA627B681B689A68184B1340BA68BE
:102950009A420BD17B680022DA627B689B6A23F083
:10296000030343F001027B689A6218E07B689B6A6C
:1029700023F0120343F010027B689A627B68DB6AE3
:1029800043F001027B68DA620123FB7507E07B6894
:102990009B6A43F010027B689A620123FB75FB7D02
:1029A00018461837BD4680BDFDF7E1FFFE0E1FFF3C
:1029B00080B584B000AF78600023FB737B6893F828
:1029C0002430012B01D1022398E07B68012283F897
:1029D0002420786800F0A4FA0346FB73FB7B002BED
:1029E00040F087807B689B6A23F4407323F00103E7
:1029F00043F480727B689A627B681B68414A934209
:102A000005D1414B5B6803F47023002B15D17B6823
:102A10009B6A23F480127B689A627B681B685B6800
:102A200003F48063002B26D07B689B6A23F4405319
:102A300043F480527B689A621DE07B689B6A43F492
:102A400080127B689A627B681B682F4A934204D08D
:102A50007B681B682B4A93420DD12B4B5B6803F4B8
:102A60008063002B07D07B689B6A23F4405343F4B8
:102A700080527B689A627B689B6A03F48053002BC8
:102A800006D07B68DB6A23F006027B68DA6202E02C
:102A90007B680022DA627B68002283F824207B684E
:102AA0001B686FF002021A607B681B689B6803F466
:102AB0006023B3F5602F13D17B681B68114A9342E2
:102AC00005D1114B5B6803F47023002B08D17B68A0
:102AD0001B689A687B681B6842F4A0029A600CE04D
:102AE0007B681B689A687B681B6842F480129A6056
:102AF00003E07B68002283F82420FB7B1846103714
:102B0000BD4680BD002801400024014090B587B03B
:102B100000AF7860396000237B610023FB600023F5
:102B20003B61FFF73FFE78617B681B689B6803F49D
:102B30008073002B0BD07B689B6A43F020027B687C
:102B40009A627B68002283F824200123D3E07B680B
:102B50001B685B6803F48073002B31D17B681B68B2
:102B6000DB6A03F47003002B2AD121E03B68B3F148
:102B7000FF3F1DD03B68002B07D0FFF713FE024636
:102B80007B69D31A3A689A4212D27B681B681B6829
:102B900003F00203002B0BD17B689B6A43F0040215
:102BA0007B689A627B68002283F824200323A2E0DA
:102BB0007B681B681B6803F00203002BD6D070E013
:102BC0004F4B1C68022001F0A5F90346B4FBF3F259
:102BD0007B681B6819694B4B0B40002B18D17B6835
:102BE0001B68D968484B0B40002B11D17B681B68D0
:102BF0001969464B0B40002B08D17B681B68D968CC
:102C0000434B0B40002B01D1142320E029231EE06D
:102C10007B681B6819693D4B0B40002B06D17B6814
:102C20001B68D9683A4B0B40002B0DD07B681B68A2
:102C30001969384B0B40002B08D17B681B68D96899
:102C4000344B0B40002B01D1542300E0FC2302FB4A
:102C500003F33B6121E03B68B3F1FF3F1AD03B68CF
:102C6000002B07D0FFF79EFD02467B69D31A3A6816
:102C70009A420FD2FB683A699A420BD97B689B6AE9
:102C800043F004027B689A627B68002283F8242068
:102C9000032330E0FB680133FB60FB683A699A422A
:102CA000D9D87B681B686FF012021A607B689B6A38
:102CB00043F400727B689A627B681B689B6803F42C
:102CC0006023B3F5602F15D17B681B7B002B11D1DE
:102CD0007B689B6A23F480727B689A627B689B6A3C
:102CE00003F48053002B05D17B689B6A43F00102FB
:102CF0007B689A62002318461C37BD4690BD00BF12
:102D00000000002024499224244992009224491270
:102D1000922449004992240080B483B000AF7860C7
:102D20007B681B68DB6C18460C37BD4680BC70475F
:102D300080B485B000AF786039600023FB73002356
:102D4000BB607B6893F82430012B01D10223DCE0C7
:102D50007B68012283F824203B685B68062B1CD823
:102D60007B681B68596B3B685A6813469B00134489
:102D7000053B1F2202FA03F3DB4319403B68186846
:102D80003B685A6813469B001344053B00FA03F264
:102D90007B681B680A435A633CE03B685B680C2B0A
:102DA0001CD87B681B68196B3B685A6813469B00EC
:102DB0001344233B1F2202FA03F3DB4319403B6811
:102DC00018683B685A6813469B001344233B00FA7B
:102DD00003F27B681B680A431A631BE07B681B686D
:102DE000D96A3B685A6813469B001344413B1F2233
:102DF00002FA03F3DB4319403B6818683B685A68E2
:102E000013469B001344413B00FA03F27B681B68A6
:102E10000A43DA623B681B68092B1CD97B681B6874
:102E2000D9683B681A6813465B0013441E3B0722AF
:102E300002FA03F3DB4319403B6898683B681A6861
:102E400013465B0013441E3B00FA03F27B681B68C9
:102E50000A43DA6019E07B681B6819693B681A68E5
:102E600013465B001344072202FA03F3DB431940C5
:102E70003B6898683B681A6813465B00134400FA85
:102E800003F27B681B680A431A613B681B68102BBE
:102E900003D03B681B68112B32D17B681B681D4A2D
:102EA000934225D17B681B689B6803F40003002BC9
:102EB00026D17B681B689A687B681B6842F4000215
:102EC0009A603B681B68102B1AD1134B1B68134A7E
:102ED000A2FB03239A0C13469B0013445B00BB60C8
:102EE00002E0BB68013BBB60BB68002BF9D107E087
:102EF0007B689B6A43F020027B689A620123FB7324
:102F00007B68002283F82420FB7B18461437BD46DB
:102F100080BC7047002401400000002083DE1B437A
:102F200080B584B000AF78600023FB600023BB60F5
:102F30007B681B689B6803F00103012B40D07B6812
:102F40001B689A687B681B6842F001029A601F4BFD
:102F50001B681F4AA2FB03239B0CBB6002E0BB68FB
:102F6000013BBB60BB68002BF9D1FFF71BFCF8608D
:102F70001FE0FFF717FC0246FB68D31A022B18D993
:102F80007B681B689B6803F00103012B11D07B68F1
:102F90009B6A43F010027B689A627B68DB6A43F0AD
:102FA00001027B68DA627B68002283F82420012317
:102FB00007E07B681B689B6803F00103012BD8D1F5
:102FC000002318461037BD4680BD00BF000000201A
:102FD00083DE1B4380B584B000AF78600023FB60C4
:102FE0007B681B689B6803F00103012B2ED17B6873
:102FF0001B689A687B681B6822F001029A60FFF7E1
:10300000D1FBF8601BE0FFF7CDFB0246FB68D31A4B
:10301000022B14D97B681B689B6803F00103012B0A
:103020000DD17B689B6A43F010027B689A627B68D3
:10303000DB6A43F001027B68DA62012307E07B6808
:103040001B689B6803F00103012BDCD000231846AA
:103050001037BD4680BD000080B485B000AF7860F9
:103060007B6803F00703FB600C4BDB68BB60BA684E
:103070004FF6FF031340BB60FB681A02BB681343A3
:1030800043F0BF6343F40033BB60044ABB68D360C2
:1030900000BF1437BD4680BC704700BF00ED00E0A4
:1030A00080B400AF044BDB681B0A03F0070318462B
:1030B000BD4680BC704700BF00ED00E080B483B027
:1030C00000AF03463960FB7197F90730002B0ADB2C
:1030D0003B68DAB20C4997F907301201D2B20B44BF
:1030E00083F800230AE03B68DAB20849FB7903F071
:1030F0000F03043B1201D2B20B441A7600BF0C3707
:10310000BD4680BC704700BF00E100E000ED00E07C
:1031100080B489B000AFF860B9607A60FB6803F0F2
:103120000703FB61FB69C3F10703042B28BF0423DA
:10313000BB61FB690433062B02D9FB69033B00E04A
:1031400000237B614FF0FF32BB6902FA03F3DA43DD
:10315000BB681A407B699A404FF0FF317B6901FAE6
:1031600003F3D9437B680B40134318462437BD460D
:1031700080BC704780B582B000AF78607B68013B4F
:10318000B3F1807F01D301230FE00A4A7B68013B42
:1031900053600F214FF0FF30FFF790FF054B0022E7
:1031A0009A60044B07221A60002318460837BD4670
:1031B00080BD00BF10E000E080B582B000AF786055
:1031C0007868FFF749FF00BF0837BD4680BD80B56E
:1031D00086B000AF0346B9607A60FB7300237B6161
:1031E000FFF75EFF78617A68B9687869FFF790FF4A
:1031F000024697F90F3011461846FFF75FFF00BFF0
:103200001837BD4680BD80B582B000AF7860786861
:10321000FFF7B0FF034618460837BD4680BD0000E3
:1032200080B48BB000AF7860396000237B620023EC
:103230003B6269E101227B6A02FA03F3FB613B68AE
:103240001B68FA691340BB61BA69FB699A4240F096
:1032500058813B685B689A4A93425ED0984A934291
:1032600075D8984A934258D0964A93426FD8964A56
:10327000934252D0944A934269D8944A93424CD094
:10328000924A934263D8924A934246D0904A9342DC
:103290005DD8122B2AD8122B59D801A252F823F04C
:1032A0001B330008F53200080733000849330008D3
:1032B0004F3300084F3300084F3300084F330008E6
:1032C0004F3300084F3300084F3300084F330008D6
:1032D0004F3300084F3300084F3300084F330008C6
:1032E0004F330008FD32000811330008794A934239
:1032F00013D02CE03B68DB683B6229E03B68DB686D
:1033000004333B6224E03B68DB6808333B621FE028
:103310003B68DB680C333B621AE03B689B68002B20
:1033200002D104233B6213E03B689B68012B05D16B
:1033300008233B627B68FA691A6109E008233B6253
:103340007B68FA695A6103E000233B6200E000BF3A
:10335000BB69FF2B01D87B6801E07B6804337B618C
:10336000BB69FF2B02D87B6A9B0002E07B6A083BAB
:103370009B003B617B691A680F213B6901FA03F3EB
:10338000DB431A40396A3B6901FA03F31A437B694C
:103390001A603B685B6803F08053002B00F0B1803B
:1033A0004D4B9B694C4A43F0010393614A4B9B6927
:1033B00003F00103BB60BB68484A7B6A9B08023389
:1033C00052F82330FB607B6A03F003039B000F225B
:1033D00002FA03F3DB43FA681340FB607B68404A60
:1033E000934213D07B683F4A93420DD07B683E4A9C
:1033F000934207D07B683D4A934201D1032306E004
:10340000042304E0022302E0012300E000237A6A9F
:1034100002F0030292009340FA681343FB602F49C5
:103420007B6A9B080233FA6841F823203B685B689B
:1034300003F48013002B06D02D4B9A682C49BB69EE
:1034400013438B6006E02A4B9A68BB69DB4328492B
:1034500013408B603B685B6803F40013002B06D0BD
:10346000234BDA682249BB691343CB6006E0204B4B
:10347000DA68BB69DB431E491340CB603B685B687D
:1034800003F40033002B06D0194B5A681849BB6966
:1034900013434B6006E0164B5A68BB69DB43144983
:1034A00013404B603B685B6803F48033002B21D0F2
:1034B0000F4B1A680E49BB6913430B6021E000BF34
:1034C0000000321000003110000022100000211016
:1034D0000000121000001110001002400000014016
:1034E00000080140000C01400010014000140140A0
:1034F000000401400B4B1A68BB69DB4309491340C8
:103500000B607B6A01337B623B681A687B6A22FA34
:1035100003F3002B7FF48EAE00BF00BF2C37BD46F7
:1035200080BC70470004014080B485B000AF786073
:103530000B467B807B689A687B881340002B02D007
:103540000123FB7301E00023FB73FB7B1846143758
:10355000BD4680BC704780B483B000AF78600B4636
:103560007B8013467B707B78002B03D07A887B6846
:103570001A6103E07B881A047B681A6100BF0C376C
:10358000BD4680BC7047000080B586B000AF786053
:103590007B68002B01D1012372E27B681B6803F07A
:1035A0000103002B00F08780924B5B6803F00C0353
:1035B000042B0CD08F4B5B6803F00C03082B12D14B
:1035C0008C4B5B6803F48033B3F5803F0BD1894BA0
:1035D0001B6803F40033002B6CD07B685B68002B06
:1035E00068D101234CE27B685B68B3F5803F06D16C
:1035F000804B1B687F4A43F4803313602EE07B6866
:103600005B68002B0CD17B4B1B687A4A23F4803318
:103610001360784B1B68774A23F4802313601DE006
:103620007B685B68B3F5A02F0CD1724B1B68714AA5
:1036300043F4802313606F4B1B686E4A43F480335E
:1036400013600BE06B4B1B686A4A23F480331360F2
:10365000684B1B68674A23F4802313607B685B68B0
:10366000002B13D0FFF79EF8386108E0FFF79AF8B7
:1036700002463B69D31A642B01D9032300E25D4B58
:103680001B6803F40033002BF0D014E0FFF78AF836
:10369000386108E0FFF786F802463B69D31A642BCD
:1036A00001D90323ECE1534B1B6803F40033002BD7
:1036B000F0D100E000BF7B681B6803F00203002B21
:1036C00063D04C4B5B6803F00C03002B0BD0494BD1
:1036D0005B6803F00C03082B1CD1464B5B6803F4BA
:1036E0008033002B16D1434B1B6803F00203002BE1
:1036F00005D07B681B69012B01D00123C0E13D4B44
:103700001B6823F0F8027B685B69DB0039491343CF
:103710000B603AE07B681B69002B20D0364B0122FE
:103720001A60FFF73FF8386108E0FFF73BF8024600
:103730003B69D31A022B01D90323A1E12D4B1B684E
:1037400003F00203002BF0D02A4B1B6823F0F80291
:103750007B685B69DB00274913430B6015E0264B50
:1037600000221A60FFF71EF8386108E0FFF71AF828
:1037700002463B69D31A022B01D9032380E11D4B7A
:103780001B6803F00203002BF0D17B681B6803F079
:103790000803002B3AD07B689B69002B19D0174B8C
:1037A00001221A60FEF7FEFF386108E0FEF7FAFF1B
:1037B00002463B69D31A022B01D9032360E10D4B6A
:1037C0005B6A03F00203002BF0D0012000F0CEFA78
:1037D0001CE00A4B00221A60FEF7E4FF38610FE09C
:1037E000FEF7E0FF02463B69D31A022B08D90323F8
:1037F00046E100BF00100240000042428004424205
:10380000924B5B6A03F00203002BE9D17B681B68D3
:1038100003F00403002B00F0A6800023FB758B4B04
:10382000DB6903F08053002B0DD1884BDB69874A9D
:1038300043F08053D361854BDB6903F08053BB6059
:10384000BB680123FB75824B1B6803F48073002B5C
:1038500018D17F4B1B687E4A43F480731360FEF7D8
:10386000A1FF386108E0FEF79DFF02463B69D31ACD
:10387000642B01D9032303E1754B1B6803F48073A8
:10388000002BF0D07B68DB68012B06D16F4B1B6AE5
:103890006E4A43F0010313622DE07B68DB68002B66
:1038A0000CD16A4B1B6A694A23F001031362674B10
:1038B0001B6A664A23F0040313621CE07B68DB6822
:1038C000052B0CD1614B1B6A604A43F00403136261
:1038D0005E4B1B6A5D4A43F0010313620BE05B4BD6
:1038E0001B6A5A4A23F001031362584B1B6A574A5A
:1038F00023F0040313627B68DB68002B15D0FEF70E
:1039000051FF38610AE0FEF74DFF02463B69D31ACA
:1039100041F28832934201D90323B1E04B4B1B6A39
:1039200003F00203002BEED014E0FEF73BFF3861FA
:103930000AE0FEF737FF02463B69D31A41F28832AC
:10394000934201D903239BE0404B1B6A03F002031F
:10395000002BEED1FB7D012B05D13C4BDB693B4AB3
:1039600023F08053D3617B68DB69002B00F08780F4
:10397000364B5B6803F00C03082B61D07B68DB6976
:10398000022B46D1334B00221A60FEF70BFF386141
:1039900008E0FEF707FF02463B69D31A022B01D964
:1039A00003236DE0294B1B6803F00073002BF0D15B
:1039B0007B681B6AB3F5803F08D1244B5B6823F416
:1039C00000327B689B68214913434B601F4B5B6847
:1039D00023F474127B68196A7B685B6A0B431B498A
:1039E00013434B601B4B01221A60FEF7DBFE38616C
:1039F00008E0FEF7D7FE02463B69D31A022B01D935
:103A000003233DE0114B1B6803F00073002BF0D043
:103A100035E0104B00221A60FEF7C4FE386108E062
:103A2000FEF7C0FE02463B69D31A022B01D90323DD
:103A300026E0064B1B6803F00073002BF0D11EE05C
:103A40007B68DB69012B07D1012319E000100240DC
:103A500000700040600042420B4B5B68FB60FB68FB
:103A600003F480327B681B6A9A4206D1FB6803F438
:103A700070127B685B6A9A4201D0012300E0002348
:103A800018461837BD4680BD0010024080B584B08E
:103A900000AF786039607B68002B01D10123D0E052
:103AA0006A4B1B6803F007033A689A4210D9674BC8
:103AB0001B6823F0070265493B6813430B60634BA7
:103AC0001B6803F007033A689A4201D00123B8E06B
:103AD0007B681B6803F00203002B20D07B681B6807
:103AE00003F00403002B05D0594B5B68584A43F49C
:103AF000E06353607B681B6803F00803002B05D06C
:103B0000534B5B68524A43F460535360504B5B68BD
:103B100023F0F0027B689B684D4913434B607B6840
:103B20001B6803F00103002B40D07B685B68012B0E
:103B300007D1474B1B6803F40033002B15D1012339
:103B40007FE07B685B68022B07D1414B1B6803F069
:103B50000073002B09D1012373E03D4B1B6803F078
:103B60000203002B01D101236BE0394B5B6823F08A
:103B700003027B685B68364913434B60FEF712FE15
:103B8000F8600AE0FEF70EFE0246FB68D31A41F227
:103B90008832934201D9032353E02D4B5B6803F035
:103BA0000C027B685B689B009A42EBD1274B1B6839
:103BB00003F007033A689A4210D2244B1B6823F0A3
:103BC000070222493B6813430B60204B1B6803F03C
:103BD00007033A689A4201D0012332E07B681B68F0
:103BE00003F00403002B08D0194B5B6823F4E06258
:103BF0007B68DB68164913434B607B681B6803F0E6
:103C00000803002B09D0124B5B6823F460527B68D9
:103C10001B69DB000E4913434B6000F021F802469C
:103C20000B4B5B681B0903F00F030A49CB5C22FABC
:103C300003F3094A1360094B1B681846FEF770FD31
:103C4000002318461037BD4680BD00BF002002404B
:103C500000100240D49E0008000000200400002054
:103C600080B487B000AF0023FB600023BB6000235B
:103C70007B6100237B6000233B611E4B5B68FB6024
:103C8000FB6803F00C03042B02D0082B03D027E0C1
:103C9000194B3B6127E0FB689B0C03F00F03174AAD
:103CA000D35C7B60FB6803F48033002B10D0114B96
:103CB0005B685B0C03F00103114AD35CBB607B685B
:103CC0000D4A03FB02F2BB68B2FBF3F37B6104E035
:103CD0007B680C4A02FB03F37B617B693B6102E07A
:103CE000054B3B6100BF3B6918461C37BD4680BC95
:103CF000704700BF0010024000127A00EC9E0008DE
:103D0000FC9E000800093D0080B400AF024B1B6818
:103D10001846BD4680BC70470000002080B500AF4B
:103D2000FFF7F2FF0246054B5B681B0A03F007032F
:103D30000349CB5C22FA03F3184680BD0010024011
:103D4000E49E000880B500AFFFF7DEFF0246054B9A
:103D50005B68DB0A03F007030349CB5C22FA03F339
:103D6000184680BD00100240E49E000880B485B073
:103D700000AF78600A4B1B680A4AA2FB03235B0A68
:103D80007A6802FB03F3FB6000BFFB685A1EFA600F
:103D9000002BF9D100BF00BF1437BD4680BC70476F
:103DA00000000020D34D621080B586B000AF78606F
:103DB00000233B610023FB607B681B6803F0010369
:103DC000002B7DD00023FB754F4BDB6903F0805344
:103DD000002B0DD14C4BDB694B4A43F08053D36130
:103DE000494BDB6903F08053BB60BB680123FB7563
:103DF000464B1B6803F48073002B18D1434B1B68A0
:103E0000424A43F480731360FEF7CCFC386108E04B
:103E1000FEF7C8FC02463B69D31A642B01D9032381
:103E20006DE03A4B1B6803F48073002BF0D0364BE7
:103E30001B6A03F44073FB60FB68002B2ED07B6889
:103E40005B6803F44073FA689A4227D02E4B1B6AD2
:103E500023F44073FB602E4B01221A602C4B00228E
:103E60001A60294AFB681362FB6803F00103002B08
:103E700014D0FEF797FC38610AE0FEF793FC024687
:103E80003B69D31A41F28832934201D9032336E0C9
:103E90001D4B1B6A03F00203002BEED01A4B1B6A6A
:103EA00023F440727B685B68174913430B62FB7D08
:103EB000012B05D1144BDB69134A23F08053D361E6
:103EC0007B681B6803F00203002B08D00E4B5B6875
:103ED00023F440427B689B680B4913434B607B682B
:103EE0001B6803F01003002B08D0074B5B6823F41A
:103EF00080027B68DB68044913434B60002318464B
:103F00001837BD4680BD00BF001002400070004061
:103F10004004424280B588B000AF786000237B61E6
:103F20000023FB6100233B610023FB600023BB6196
:103F30007B68102B0AD07B68102B00F28A807B688C
:103F4000012B45D07B68022B75D082E0464B5B6825
:103F5000FB60454B1B6803F08073002B7BD0FB6834
:103F60009B0C03F00F03414AD35C3B61FB6803F4F5
:103F70008033002B15D03C4B5B685B0C03F00103D6
:103F80003B4AD35C7B61FB6803F48033002B0DD08C
:103F9000384A7B69B2FBF3F23B6902FB03F3FB6136
:103FA00004E03B69344A02FB03F3FB612E4B5B6880
:103FB00003F48003B3F5800F02D1FB69BB614AE0D3
:103FC000FB695B002D4AA2FB03235B08BB6142E057
:103FD000254B1B6AFB60FB6803F44073B3F5807FDD
:103FE00008D1FB6803F00203002B03D04FF4004319
:103FF000BB611FE0FB6803F44073B3F5007F09D198
:10400000194B5B6A03F00203002B03D049F64043CF
:10401000BB610FE0FB6803F44073B3F5407F1CD134
:10402000114B1B6803F40033002B16D04FF22443CE
:10403000BB6112E011E0FFF785FE02460A4B5B68A8
:104040009B0B03F0030301335B00B2FBF3F3BB6193
:1040500004E000BF02E000BF00E000BFBB691846FB
:104060002037BD4680BD00BF00100240009F000801
:10407000109F000800127A0000093D00ABAAAAAA0E
:1040800080B582B000AF78607B68002B01D101233E
:1040900076E07B685B6A002B08D17B685B68B3F5D0
:1040A000827F09D07B680022DA6105E07B6800220C
:1040B0001A617B6800225A617B6800229A627B68E1
:1040C00093F85130DBB2002B06D17B68002283F8D5
:1040D00050207868FEF75EF97B68022283F8512051
:1040E0007B681B681A687B681B6822F040021A60B4
:1040F0007B685B6803F482727B689B6803F404430B
:104100001A437B68DB6803F400631A437B681B690E
:1041100003F002031A437B685B6903F001031A434F
:104120007B689B6903F400731A437B68DB6903F0C7
:1041300038031A437B681B6A03F0800342EA0301D9
:104140007B689B6A03F400527B681B680A431A6011
:104150007B689B691A0C7B681B6802F004025A603A
:104160007B681B68DA697B681B6822F40062DA618D
:104170007B6800225A657B68012283F85120002366
:1041800018460837BD4680BD80B588B000AFF860DE
:10419000B9603B601346FB80FEF704FBF861FB88C7
:1041A0007B83FB6893F85130DBB2012B01D00223F3
:1041B0002AE1BB68002B02D0FB88002B01D1012330
:1041C00022E1FB6893F85030012B01D102231BE15F
:1041D000FB68012283F85020FB68032283F85120FA
:1041E000FB6800225A65FB68BA681A63FB68FA88A4
:1041F0009A86FB68FA88DA86FB6800229A63FB6875
:1042000000229A87FB680022DA87FB6800225A6442
:10421000FB6800221A64FB689B68B3F5004F0FD15E
:10422000FB681B681A68FB681B6822F040021A6072
:10423000FB681B681A68FB681B6842F480421A60BE
:10424000FB681B681B6803F04003402B07D0FB682A
:104250001B681A68FB681B6842F040021A60FB6822
:10426000DB68B3F5006F52D1FB685B68002B02D0AE
:104270007B8B012B45D1FB681B6B1A88FB681B6885
:10428000DA60FB681B6B9A1CFB681A63FB68DB8EA9
:104290009BB2013B9AB2FB68DA8632E0FB681B688E
:1042A0009B6803F00203022B12D1FB681B6B1A8878
:1042B000FB681B68DA60FB681B6B9A1CFB681A635F
:1042C000FB68DB8E9BB2013B9AB2FB68DA8618E092
:1042D000FEF768FA0246FB69D31A3A689A4203D895
:1042E0003B68B3F1FF3F02D13B68002B09D1FB686B
:1042F000012283F85120FB68002283F85020032319
:1043000082E0FB68DB8E9BB2002BC7D153E0FB68D9
:104310005B68002B02D07B8B012B47D1FB681A6BAB
:10432000FB681B680C3312781A70FB681B6B5A1CF5
:10433000FB681A63FB68DB8E9BB2013B9AB2FB6899
:10434000DA8633E0FB681B689B6803F00203022BEC
:1043500013D1FB681A6BFB681B680C3312781A7058
:10436000FB681B6B5A1CFB681A63FB68DB8E9BB2F5
:10437000013B9AB2FB68DA8618E0FEF713FA0246B0
:10438000FB69D31A3A689A4203D83B68B3F1FF3FFE
:1043900002D13B68002B09D1FB68012283F8512030
:1043A000FB68002283F8502003232DE0FB68DB8E9E
:1043B0009BB2002BC6D1FA693968F86800F066FA3A
:1043C0000346002B02D0FB6820225A65FB689B68DD
:1043D000002B0AD100237B61FB681B68DB687B61D3
:1043E000FB681B689B687B617B69FB68012283F823
:1043F0005120FB68002283F85020FB685B6D002B86
:1044000001D0012300E0002318462037BD4680BDBF
:1044100080B58AB000AFF860B9607A607B80012314
:104420007B62FEF7BFF93862FB6893F85130FB7787
:10443000FB685B68BB617B88FB82FB7F012B0CD038
:10444000BB69B3F5827F06D1FB689B68002B02D164
:10445000FB7F042B01D002237FE1BB68002B05D03A
:104460007B68002B02D07B88002B01D1012374E1F3
:10447000FB6893F85030012B01D102236DE1FB68FA
:10448000012283F85020FB6893F85130DBB2042BF3
:1044900003D0FB68052283F85120FB6800225A658F
:1044A000FB687A689A63FB687A88DA87FB687A889F
:1044B0009A87FB68BA681A63FB687A88DA86FB68B1
:1044C0007A889A86FB6800221A64FB6800225A6484
:1044D000FB681B681B6803F04003402B07D0FB6898
:1044E0001B681A68FB681B6842F040021A60FB6890
:1044F000DB68B3F5006F7ED1FB685B68002B02D0F0
:10450000FB8A012B6CD1FB681B6B1A88FB681B684C
:10451000DA60FB681B6B9A1CFB681A63FB68DB8E16
:104520009BB2013B9AB2FB68DA8659E0FB681B68D4
:104530009B6803F00203022B1BD1FB68DB8E9BB24E
:10454000002B16D07B6A012B13D1FB681B6B1A88DA
:10455000FB681B68DA60FB681B6B9A1CFB681A63BC
:10456000FB68DB8E9BB2013B9AB2FB68DA860023C4
:104570007B62FB681B689B6803F00103012B19D168
:10458000FB68DB8F9BB2002B14D0FB681B68DA68DA
:10459000FB689B6B92B21A80FB689B6B9A1CFB6852
:1045A0009A63FB68DB8F9BB2013B9AB2FB68DA87A8
:1045B00001237B62FEF7F6F802463B6AD31A3A6B98
:1045C0009A420DD83B6BB3F1FF3F09D0FB68012243
:1045D00083F85120FB68002283F850200323BCE0BD
:1045E000FB68DB8E9BB2002BA0D1FB68DB8F9BB2FC
:1045F000002B9BD182E0FB685B68002B02D0FB8A1A
:10460000012B71D1FB681A6BFB681B680C331278A5
:104610001A70FB681B6B5A1CFB681A63FB68DB8E05
:104620009BB2013B9AB2FB68DA865DE0FB681B68CF
:104630009B6803F00203022B1CD1FB68DB8E9BB24C
:10464000002B17D07B6A012B14D1FB681A6BFB6817
:104650001B680C3312781A70FB681B6B5A1CFB68C2
:104660001A63FB68DB8E9BB2013B9AB2FB68DA8669
:1046700000237B62FB681B689B6803F00103012B2E
:1046800019D1FB68DB8F9BB2002B14D0FB681B6831
:10469000DA68FB689B6BD2B21A70FB689B6B5A1C82
:1046A000FB689A63FB68DB8F9BB2013B9AB2FB68A5
:1046B000DA8701237B62FEF775F802463B6AD31A5C
:1046C0003A6B9A4203D83B6BB3F1FF3F02D13B6B8D
:1046D000002B09D1FB68012283F85120FB680022DE
:1046E00083F85020032338E0FB68DB8E9BB2002B5D
:1046F0009CD1FB68DB8F9BB2002B97D13A6A396B58
:10470000F86800F0C3F80346002B08D0FB682022AD
:104710005A65FB68002283F8502001231DE0FB68E6
:104720009B68002B0AD100233B61FB681B68DB6898
:104730003B61FB681B689B683B613B69FB6801222E
:1047400083F85120FB68002283F85020FB685B6DE2
:10475000002B01D0012300E0002318462837BD4676
:1047600080BD80B483B000AF78607B6893F851302F
:10477000DBB218460C37BD4680BC704780B588B0A8
:1047800000AFF860B9603B601346FB71FEF70AF8B2
:104790000246BB6A9B1A3A681344FB61FEF702F8B3
:1047A000B861394B1B685B011B0DFA6902FB03F30F
:1047B0007B6154E03B68B3F1FF3F50D0FDF7F2FF5F
:1047C0000246BB69D31AFA699A4202D9FB69002BE7
:1047D0003DD1FB681B685A68FB681B6822F0E00249
:1047E0005A60FB685B68B3F5827F11D1FB689B68F8
:1047F000B3F5004F04D0FB689B68B3F5806F07D119
:10480000FB681B681A68FB681B6822F040021A608C
:10481000FB689B6AB3F5005F0FD1FB681B681A68E1
:10482000FB681B6822F400521A60FB681B681A6858
:10483000FB681B6842F400521A60FB68012283F88F
:104840005120FB68002283F85020032317E07B6986
:10485000002B01D10023FB617B69013B7B61FB687D
:104860001B689A68BB681340BA689A420CBF012360
:104870000023DBB21A46FB799A429BD100231846EB
:104880002037BD4680BD00BF0000002080B586B047
:1048900002AFF860B9607A607B680093BB68012260
:1048A0000221F868FFF76AFF0346002B07D0FB6878
:1048B0005B6D43F02002FB685A65032313E07B68BD
:1048C0000093BB6800228021F868FFF757FF03467A
:1048D000002B07D0FB685B6D43F02002FB685A6534
:1048E000032300E0002318461037BD4680BD80B585
:1048F00082B000AF78607B68002B01D1012342E0D9
:104900007B6893F84130DBB2002B06D17B68002234
:1049100083F840207868FDF787FD7B68242283F8C0
:1049200041207B681B68DA687B681B6822F40052B0
:10493000DA60786800F072F97B681B681A697B6836
:104940001B6822F490421A617B681B685A697B6875
:104950001B6822F02A025A617B681B68DA687B6850
:104960001B6842F40052DA607B6800225A647B685C
:10497000202283F841207B68202283F842207B6834
:1049800000225A63002318460837BD4680BD80B513
:104990008AB002AFF860B9603B601346FB80002329
:1049A0007B61FB6893F84130DBB2202B75D1BB688B
:1049B000002B02D0FB88002B01D101236EE0FB68A5
:1049C00000225A64FB68212283F84120FDF7EAFEA9
:1049D0007861FB68FA889A84FB68FA88DA84FB6855
:1049E0009B68B3F5805F08D1FB681B69002B04D17D
:1049F0000023FB61BB68BB6103E0BB68FB61002374
:104A0000BB612EE03B6800937B6900228021F8683F
:104A100000F048F80346002B05D0FB68202283F8FD
:104A2000412003233AE0FB69002B0BD1BB691B88B3
:104A30001A46FB681B68C2F308025A60BB6902335E
:104A4000BB6107E0FB691A78FB681B685A60FB6969
:104A50000133FB61FB68DB8C9BB2013B9AB2FB68C4
:104A6000DA84FB68DB8C9BB2002BCBD13B680093D4
:104A70007B6900224021F86800F014F80346002BFF
:104A800005D0FB68202283F84120032306E0FB6861
:104A9000202283F84120002300E00223184620371B
:104AA000BD4680BD80B586B000AFF860B9603B60A0
:104AB0001346FB713BE03B6AB3F1FF3F37D0FDF794
:104AC00071FE02463B68D31A3A6A9A4202D33B6AA5
:104AD000002B01D103233AE0FB681B68DB6803F07D
:104AE0000403002B23D0BB68802B20D0BB68402B55
:104AF0001DD0FB681B681B6803F00803082B16D148
:104B000000237B61FB681B681B687B61FB681B687B
:104B10005B687B617B69F86800F01DF8FB68082220
:104B20005A64FB68002283F8402001230FE0FB68F1
:104B30001B681A68BB681340BA689A420CBF01230D
:104B40000023DBB21A46FB799A42B4D00023184600
:104B50001837BD4680BD80B495B000AF78607B68E3
:104B60001B680C337B637B6B53E8003F3B633B6B01
:104B700023F49073FB647B681B680C33FA6C3A6413
:104B8000FB63F96B3A6C41E80023BB63BB6B002B02
:104B9000E5D17B681B6814333B623B6A53E8003FF6
:104BA000FB61FB6923F00103BB647B681B68143362
:104BB000BA6CFA62BB62B96AFA6A41E800237B62A6
:104BC0007B6A002BE5D17B681B6B012B19D17B68BD
:104BD0001B680C33FB60FB6853E8003FBB60BB689D
:104BE00023F010037B647B681B680C337A6CBA611A
:104BF0007B617969BA6941E800233B613B69002B1D
:104C0000E5D17B68202283F842207B6800221A636A
:104C100000BF5437BD4680BC7047000080B584B0EB
:104C200000AF78607B681B681B6923F440517B6888
:104C3000DA687B681B680A431A617B689A687B683C
:104C40001B691A437B685B691343BB607B681B6805
:104C5000DB6823F4B05323F00C037A681268B96858
:104C60000B43D3607B681B685B6923F440717B68EE
:104C70009A697B681B680A435A617B681B682C4AE7
:104C8000934203D1FFF75EF8F86002E0FFF746F8C1
:104C9000F860FA6813469B0013449A001A447B6834
:104CA0005B689B00B2FBF3F3224AA2FB03235B0980
:104CB0001901FA6813469B0013449A001A447B6852
:104CC0005B689B00B2FBF3F21A4BA3FB02035B0988
:104CD000642000FB03F3D31A1B013233154AA2FBF5
:104CE00003235B0903F0F0031944FA6813469B00A1
:104CF00013449A001A447B685B689B00B2FBF3F292
:104D00000C4BA3FB02035B09642000FB03F3D31AE3
:104D10001B013233074AA2FB03235B0903F00F0296
:104D20007B681B680A449A6000BF1037BD4680BD8F
:104D3000003801401F85EB51002B2DE9F0471D463F
:104D4000BBBF03F100431D4600232D2388B014464A
:104D5000B8BF1446129A109E1370149BDDF84CA035
:104D600023F02008B8F1460F05D0B8F1450F00D167
:104D70000136022300E0032307AA049206AACDE924
:104D800002A2CDE9003622462B4601F0B9F8B8F16F
:104D9000470F074619D1119BDB070ED500EB06091B
:104DA0000022002320462946FBF7FEFD08B1CDF87E
:104DB0001C903022079B4B451ED33846079B159A03
:104DC000DB1B136008B0BDE8F087B8F1460F00EBBD
:104DD0000609E5D10378302B0AD1002200232046B2
:104DE0002946FBF7E1FD18B9C6F10106CAF80060D3
:104DF000DAF800309944D3E7591C07911A70D9E7C3
:104E0000F7B50029B6BF2D232B234942092902708B
:104E1000437029DD0DF107031D460A27B1FBF7F6A4
:104E20001A4607FB1614303402F8014C0C46632C6A
:104E3000314603F1FF33F1DC3031941E03F8011CDD
:104E40002346411CAB420AD30DF109039B1AAC4225
:104E500088BF002302330344181A03B0F0BD13F8CF
:104E6000016B01F8016FEDE7302330318370C170C1
:104E7000031DF1E72DE9F04F91B00C46DDF8688095
:104E800016461F46054600F019FF036818460893AA
:104E9000FBF75EF900230E93D8F800300990073332
:104EA00023F0070303F1080294F818A0D4F800B027
:104EB000C8F80020D3E9008929F000430B93CDF80E
:104EC00028804FF0FF32DDE90A01C4E912899C4BCA
:104ED000FBF79CFD70BBDDE90A014FF0FF32984BF8
:104EE000FBF776FD30BB0022002340464946FBF726
:104EF00065FD10B12D2384F84330924A924BBAF1EC
:104F0000470F8CBF9046984603234FF0000923615A
:104F10002BF00403236033462146284600970FAA4E
:104F200000F0D4F9013040F090804FF0FF3011B024
:104F3000BDE8F08F42464B4640464946FBF766FDCA
:104F400048B14B46002BB8BF2D23804AB8BF84F828
:104F500043307F4BD3E763680AF0DF015A1C3FD12F
:104F60000623636000224BF48063236006920EAA3E
:104F7000CDE904A20DAA03920DF13302CDE901326D
:104F800063684246009328464B460A91FFF7D4FED9
:104F90000A99804647290D9928D1C81C02DB63680D
:104FA000994240DDAAF1020A5FFA8AFA52460139B3
:104FB00004F150000D91FFF723FF0E9A814613185C
:104FC000012A236102DC2268D20701D50133236163
:104FD0009DF83330002B9ED02D2384F843309AE780
:104FE0004729BFD1002BBDD10123BAE7BAF1650F24
:104FF000DCD9BAF1660F18D1002963680BDD216195
:1050000013B92268D00702D501330B4423614FF056
:105010000009A165DCE713B92268D20701D5023384
:10502000F4E70123F2E74FF0670A0E9B994205DB94
:1050300023682161D807EAD54B1CE7E70029CCBFDC
:105040000122C1F102021344E0E723685A0507D4A4
:105050002369424631462846B84701302BD164E7E0
:10506000BAF1650F40F2DC80D4E91201002200237E
:10507000FBF79AFC002833D0012331462846354AF5
:10508000B84701303FF451AFDDE90D38434502DB4D
:105090002368D8070FD5DDE9082331462846B847ED
:1050A00001303FF442AF4FF0000908F1FF3804F13E
:1050B0001A0AC84509DC23689B0700F10281E068F1
:1050C0000F9B9842B8BF184631E70123524631463C
:1050D0002846B84701303FF428AF09F10109E8E755
:1050E0000D9B002B38DC012331462846194AB8476E
:1050F00001303FF41AAFDDE90D3959EA030302D15B
:105100002368D907D7D5DDE9082331462846B847B3
:1051100001303FF40AAF4FF0000A04F11A0B0D9B67
:105120005B42534501DC4B4693E701235A46314627
:105130002846B84701303FF4F8AE0AF1010AEEE71D
:10514000FFFFEF7F169F0008129F00081E9F0008B8
:105150001A9F000858A00008A36DDDF838A0534539
:10516000A8BF5346002B994636DC4FF0000B29EAC6
:10517000E97904F11A02A36D0A93A3EB09035B45D5
:1051800031DC0D9B9A453ADC2368DA0737D40D9B56
:10519000AAEB03090A9BAAEB03039945A8BF99460A
:1051A000B9F1000F33DC4FF0000829EAE97904F186
:1051B0001A0B0D9BAAEB0303A3EB090343457FF7EF
:1051C0007AAF01235A4631462846B84701303FF4AA
:1051D000ACAE08F10108ECE7424631462846B84734
:1051E0000130C2D1A1E60123314628460A92B847D0
:1051F00001303FF49AAE0A9A0BF1010BBBE731463E
:10520000DDE908232846B8470130C0D18DE60A9A67
:105210004B46314628464244B8470130C3D184E664
:10522000DDF838A0BAF1010F01DCDB0736D5012328
:10523000424631462846B84701303FF476AEDDE9B4
:10524000082331462846B84701303FF46EAED4E912
:105250001201002200230AF1FF3AFBF7A5FBC0B9B7
:10526000534608F1010231462846B84701300CD1B7
:105270005BE601235A4631462846B84701303FF4E1
:1052800054AE08F10108D045F3DB4B4604F150025F
:10529000E0E64FF0000804F11A0BF4E70123424660
:1052A000E1E701234A4631462846B84701303FF43A
:1052B0003CAE08F10108E3680F995B1A4345F0DC46
:1052C000FDE64FF0000804F11909F4E72DE9F04775
:1052D000164698468A680B6907469342B8BF13463C
:1052E000336091F843200C46DDF820900AB1013379
:1052F00033602368990642BF336802333360256800
:1053000015F0060506D104F1190AE36832689B1A04
:10531000AB422BDC94F843302268003B18BF0123DA
:10532000920630D44146384604F14302C847013062
:1053300023D02368226903F00603042B14BF002541
:1053400033684FF0000608BFE56804F11A0408BF8F
:10535000ED1A54F8123C08BF25EAE5759342C4BF24
:105360009B1AED18B5421AD1002008E001235246DD
:1053700041463846C847013003D14FF0FF30BDE801
:10538000F0870135C1E73020E11881F843005A1C4D
:1053900094F845102244023382F84310C2E70123F7
:1053A000224641463846C8470130E6D00136D9E7A3
:1053B0002DE9FF470F7E9146782F80460C469A468E
:1053C0000C9E01F1430207D8622F0AD8002F00F08B
:1053D000D180582F00F0B88004F1420684F8427062
:1053E0003AE0A7F16303152BF6D801A151F823F099
:1053F000495400085D540008D9530008D9530008E7
:10540000D9530008D95300085D540008D953000847
:10541000D9530008D9530008D95300085B55000838
:105420008754000815550008D9530008D9530008BF
:105430007D550008D953000887540008D953000847
:10544000D95300081D55000833681A1D1B683260C7
:1054500004F1420684F8423001239CE0336820685E
:10546000191D3160060601D51D6803E04506FBD510
:10547000B3F90050002D03DA2D236D4284F8433038
:105480000A23584811E021683368080653F8045B82
:1054900002D4490648BFADB26F2F336014BF0A2350
:1054A00008235048002184F843106668002EA66047
:1054B00005DB21682E4321F0040121604BD0164604
:1054C000B5FBF3F103FB1157C75D06F8017D2F46CD
:1054D000BB420D46F4D9082B0BD12368DF0708D552
:1054E000236961689942DEBF302306F8013C06F16A
:1054F000FF36921B22614B4621464046CDF800A064
:1055000003AAFFF7E3FE01304AD14FF0FF3004B0A9
:10551000BDE8F087236843F02003236078273248F2
:1055200084F84570236831681F0651F8045B02D483
:105530005F0648BFADB23160D90744BF43F02003D6
:1055400023601DB11023ADE72648E9E7236823F067
:1055500020032360F6E71646BDE733682568181D6B
:10556000616930602E061B6801D5196002E068068B
:10557000FBD51980002316462361BCE73368002160
:105580001A1D32601E686268304600F00EFC08B1D9
:10559000801B606063682361002384F84330AAE7BE
:1055A0003246494640462369D0470130ADD0236892
:1055B0009B0713D4E068039B9842B8BF1846A6E740
:1055C0000123324649464046D04701309DD001353F
:1055D000E36803995B1AAB42F2DCEBE7002504F1C8
:1055E0001906F5E7229F0008339F00082DE9F04FC8
:1055F00087B003938B6891465A1EB2F5AE7F82BF87
:105600006FF4AE7503EB050B40F25D130A464FF0E5
:10561000000588BF8B600B68804643F4F06342F856
:105620001C3B0C4698BF4FF0000B1646AA462F466F
:10563000CDE9045501920295A2685AB1D9F800301B
:105640001B784E2B62D8402B3AD8A3F12B01C8B25D
:105650000E2838D91FB1236823F4807323600AF120
:10566000FF3ABAF1010F00F21481019B9E4200F251
:105670000581012007B0BDE8F08FA3F161020D2A7A
:10568000E8D801A151F822F0D1570008555600087A
:1056900055560008555600082D58000807580008B0
:1056A0005556000855560008DF57000855560008A3
:1056B0005556000855560008555600089B570008D7
:1056C000A3F14102DBE70E29C4D801A050F821F074
:1056D0008B570008555600088B5700081B580008C8
:1056E000555600082D5700087157000871570008DB
:1056F000715700087157000871570008715700086A
:105700007157000871570008715700086E2B09D8AF
:10571000602BB2D8542B7BD0592B9BD1072D99D11C
:1057200008252FE0742B73D0792BF6E72168C80584
:105730001ED521F0800121600137BBF1000F03D09D
:1057400001320BF1FF3BA260A368013BA360236918
:1057500001332361D9F80430013B002BC9F8043030
:1057600040F38380D9F800300133C9F8003063E793
:105770001AEB05017FF46EAF0D468A46226822F4CB
:10578000C072226006F8013BDEE7226810067FF552
:1057900061AF22F080022260F4E7BAF1000F0CD171
:1057A00077B9226802F4E061B1F5E06F08D122F424
:1057B000F0624FF0010A2260E4E7BAF1020F51D023
:1057C000012D02D0042D7FF445AF0135EDB2D9E7AC
:1057D000BAF1010F7FF43EAF4FF0020AD2E775B97C
:1057E000002F7FF438AF226802F4E061B1F5E06F7A
:1057F00040F0FF8022F4F06201252260C2E7032D11
:10580000E3D0052DDFE7022D7FF424AF0325B9E7B0
:10581000062D7FF41FAF0725B4E7226891057FF5B9
:1058200019AF22F4207222600297ABE7226802F4DB
:10583000A061B1F5806F05D050057FF50BAF002F4B
:1058400000F0D780910558BF029922F4F06258BF4A
:10585000791A42F4C0724FF0000758BFCDE9041620
:1058600022608FE74FF0030A8CE749464046D4F8A0
:105870008031984700283FF4DFAEEBE6D4F87C3166
:105880004A46404616F8011D98472369013B2361AB
:10589000EBE66B1E062B24D8022D36D8019B9E42C8
:1058A0007FF6E7AED4F87C314A46404616F8011D33
:1058B00098472369013B2361F0E7D4F87C314A46DD
:1058C00040461BF8011D98472369013B23610AF1FB
:1058D000FF3A5FFA8AFABAF1020FEED1033DEDB258
:1058E000761B2368DA0530D55B0511D5019B9E42F6
:1058F0007FF6BFAED4F87C314A46404616F8011D0B
:1059000098472369013B2361F0E7AA46B346DEE7E7
:1059100016F8011C2369652903F1FF3306F1FF35F1
:1059200023610CD045290AD0D4F87C314A46404640
:105930009847236916F8021C013BB51E23614A46AD
:105940004046D4F87C3198472E46226812F0100267
:1059500001D000208EE63270236803F4C063B3F5F3
:10596000806F25D1029B9F420AD0DA1B04F26F138D
:105970009E4228BF04F5B77630461F4900F002F971
:1059800000224046019902F027FC039B25681B6812
:1059900015F0020F06460F4603F1040215D00399D5
:1059A0000A601B68C3E90067E3680133E360D0E77E
:1059B000049B002BE4D005990A234046013102F0F4
:1059C0008BFC049B059EC21AD0E76D07E7D4039DAC
:1059D0002A601D6802460B46FBF718F820B10748FD
:1059E00000F000FA2860DFE730463946FBF76CF834
:1059F000F8E7002733E600BF449F0008A0A0000896
:105A0000002310B50446C0E90033C0E904338360C5
:105A100081814366C2818361194608225C3000F0AF
:105A200044F90D4B246263620C4BA3620C4BE3629E
:105A30000C4B23630C4B9C4206D003F1680294424A
:105A400002D0D0339C4205D104F15800BDE810408B
:105A500000F0A8B910BD00BF215C0008475C000839
:105A60007F5C0008A35C0008B0040020024A0349E0
:105A7000034800F069B800BF0C000020C18C00088A
:105A80001C00002041680C4B10B59942044601D01F
:105A900003F016F9A168094B994202D0204603F0A1
:105AA0000FF9E168064B994204D02046BDE810404A
:105AB00003F006B910BD00BFB00400201805002097
:105AC0008005002010B50B4B0B4C0C4A20461A6089
:105AD00004210022FFF794FF04F16800012209214C
